:020000040800F2
:1000000088060020810100085F0300085D030008E6
:1000100000000000000000000000000000000000E0
:100020000000000000000000000000006303000862
:1000300000000000000000006103000865030008E4
:100040009301000893010008930100089301000840
:100050009301000893010008930100089301000830
:100060009301000893010008930100089301000820
:100070009301000893010008930100089301000810
:100080009301000871030008930100089301000820
:1000900093010008930100089301000893010008F0
:1000A00093010008930100089301000893010008E0
:1000B00093010008930100089301000893010008D0
:1000C00000F002F800F04CF812A030C808382418EC
:1000D0002D18AC4201D100F043F80FCCA246AB463C
:1000E0000CA730CF2D1B083F3F197C427F1E544484
:1000F0002D090426F441641EAC4201D300F030F80F
:100100000126334200D0FB1A3343984754465D46DC
:10011000DFE700006407000084070000103A02D304
:1001200078C878C1FAD8520701D330C830C101D598
:1001300004680C6070470000704700000023002432
:1001400000250026103A01D378C1FBD8520700D30E
:1001500030C100D50B6070471FB51FBD10B510BD75
:1001600000F02DF81146FFF7F7FF00F05DF900F001
:1001700045F803B4FFF7F2FF03BC00F04BF80000B2
:100180000748804707480047FEE7FEE7FEE7FEE72F
:10019000FEE7FEE704480549054A064B70470000A4
:1001A0006D030008C10000088800002088060020B8
:1001B000880200208802002070477047704775460B
:1001C00000F024F8AE46050069465346C008C0005A
:1001D000854618B020B5FFF7DDFF60BCB6460026A7
:1001E0000027C0C5C0C5C0C5C0C5C0C5C0C5C0C545
:1001F000C0C5403D490849008D46704710B50446CA
:10020000C046C0462046FFF7B4FF10BD0048704707
:100210001000002001491820ABBEFEE726000200B6
:1002200070470000B0B5044600F00CF80546601CAD
:1002300002D022480078041900F004F8401BA042C4
:10024000FAD3B0BD054800687047C0461B48007827
:1002500002490A68101808607047C04684000020F0
:1002600080B50648016810220A430260032000F0AE
:1002700007F800F027F8002080BDC04600200240AB
:1002800070B504467D20C0000C4E317800F0F8F9BE
:1002900001460B48006800F0F3F900F045F801252D
:1002A000032C08D8002806D10025E84321462A4619
:1002B00000F01EF87460284670BDC046040000209F
:1002C0000C00002082B0094801680122114301603E
:1002D0000168114001910199110742680A43426087
:1002E000406808400090009802B070471810024023
:1002F000002805D40322034693430A4A9A1803E0D0
:100300000C220240064BD2188007C00E8901C9B2E8
:100310008140FF2383401068984308431060704772
:1003200014ED00E000E400E0401E010E01D00120C9
:1003300070470749074A5060074803680B4003218C
:1003400089075918016000209060072111607047EB
:10035000FFFFFF0010E000E020ED00E0FEE7FEE719
:100360007047704780B5FFF771FF80BD7047000090
:1003700070B525480168254A8918254CE180BA499D
:100380000160E088A088E188401A20816088218986
:1003900022784A43101860800220215E002906D48A
:1003A000215E1C4A914204DB1921C90100E00021B1
:1003B00061802189184A13784B43517862884A43F7
:1003C000D11889B24D09215E002904D4205E652828
:1003D00003DB642000E000206080E8B2642806D8D7
:1003E0000E4E31684843642100F04AF9B060257030
:1003F0000B480168490701D5006C60700948016825
:1004000001229143016070BD240400400180FFFF80
:1004100078000020810C0000000000202C2000400B
:100420000024014010100040204C00202060FFF705
:1004300017FF0125E9041E4802680A4302600521EE
:1004400009041C4E3246083A13680B431360311FEF
:100450000A68194B1A400A603168184A1140316025
:10046000716811407160F1681940F16069040268B7
:100470000A4302600320C0430921C9060A680240FA
:100480000A60316801403160706802210143716087
:1004900000F018F80A4F6802F1684140F1603868CE
:1004A00060608020FFF7BEFEF5E7C04670000020C8
:1004B0001410024008080048FFFCFFFFFFFFF0FF98
:1004C00024000040F0B583B00125690202910920A3
:1004D000C2061068084310602E021068B0430196EF
:1004E00010600F200304146A9C431462A904009155
:1004F000136A0B431362800213688343136005275A
:10050000B802136803431360506920230343536107
:1005100050694023984350614E4908683043086051
:100520000E464D480023036083610362816968249D
:100530000C438461016A2943016285624B210901F0
:10054000C16243630168294301603046083801688D
:10055000009C21430160380240490C6884430C60D0
:1005600078020C6804430C60112000040C6A0443F8
:100570000C6234463068022630432060384FBB613D
:100580003B62BB603B60B869019908432843B8618E
:10059000B86803210143B9603248F8623248786292
:1005A0003968294339602746216810240C433C6090
:1005B0002E490B248C622E4CCC62CC682C43CC6030
:1005C0000C682C430C6069042A4C2160FF2109024D
:1005D000294C27688F433818401C206010680C2174
:1005E000014311601B48001F0168029A114301601A
:1005F00022494B6068034A6802434A60086A3043F4
:1006000008620B60E8070A6802430A60086800286D
:1006100008D50868002805D50868002802D50868AC
:100620000028F3D4086828430860084608380268A0
:10063000D20708D10268D20705D10268D20702D1D9
:100640000068C007F1D00868042202430A6003B0C2
:10065000F0BDC0461C1002400020004000040048CD
:1006600000040040FFFF0000FF7F0000001000407A
:100670003075000000E100E010E400E008240140D3
:1006800043088B421AD3002203098B4279D3030A11
:100690008B425ED3030B8B4242D3030C8B4227D396
:1006A0000902FF2212BA030C8B4202D31212090272
:1006B00003D0030B8B4233D31AE0D3E0411A8041BD
:1006C000401C704703460B4371D443088B42F5D35B
:1006D000002203098B4254D3030A8B4239D3030B04
:1006E0008B421DD3030C8B4202D394466EE0090A61
:1006F000C30B8B4201D3CB03C01A5241830B8B42F5
:1007000001D38B03C01A5241430B8B4201D34B03DD
:10071000C01A5241030B8B4201D30B03C01A524142
:10072000C30A8B4201D3CB02C01A5241830A8B42C7
:1007300001D38B02C01A5241430A8B4201D34B02B0
:10074000C01A5241030A8B4201D30B02C01A524114
:10075000CDD2C3098B4201D3CB01C01A52418309C8
:100760008B4201D38B01C01A524143098B4201D302
:100770004B01C01A524103098B4201D30B01C01A2D
:100780005241C3088B4201D3CB00C01A52418308A7
:100790008B4201D38B00C01A524143088B4201D3D4
:1007A0004B00C01A5241411A524110007047CA0F03
:1007B00000D04942031000D34042534000229C46DF
:1007C00003098B422DD3030A8B4212D38901FC22E9
:1007D00012BA030A8B420CD3890192118B4208D3BF
:1007E000890192118B4204D3890137D0921100E024
:1007F0008909C3098B4201D3CB01C01A5241830935
:100800008B4201D38B01C01A524143098B4201D361
:100810004B01C01A524103098B4201D30B01C01A8C
:100820005241C3088B4201D3CB00C01A5241830806
:100830008B4201D38B00C01A5241D9D243088B425C
:1008400001D34B00C01A5241411A00D20146524115
:10085000104663465B1000D34042704763465B100E
:1008600000D3404201B50021004201D0C9430846EF
:10087000C046C04602BD00009808000800000020E5
:10088000100000001C010008A8080008100000204B
:10089000780600003C010008010100000100000092
:0808A0000400000000127A00C0
:04000005080000C12E
:00000001FF
